:100000000C9462000C94B9040C94E6040C948A00DD
:100010000C948A000C948A000C948A000C948A0038
:100020000C948A000C948A000C948A000C948A0028
:100030000C948A000C948A000C948A000C948A0018
:100040000C9422050C948A000C948A000C948A006B
:100050000C948A000C948A000C948A000C948A00F8
:100060000C948A000C948A000000000024002700F1
:100070002A0000000000250028002B0000000000DE
:1000800023002600290004040404040404040202DA
:100090000202020203030303030301020408102007
:1000A0004080010204081020010204081020000012
:1000B0000007000201000003040600000000000029
:1000C00000008C0011241FBECFEFD8E0DEBFCDBFF3
:1000D00011E0A0E0B1E0E0E0FEE002C005900D928A
:1000E000A435B107D9F711E0A4E5B1E001C01D9234
:1000F000AE37B107E1F710E0C4ECD0E004C02297BE
:10010000FE010E94FA06C23CD107C9F70E941305FE
:100110000C94FE060C940000CF92EF920F9388E5AA
:1001200091E068E049E024E005E056E0E52E37E0A4
:10013000C32E0E9490030F91EF90CF90089582E01C
:100140000E9464062091540130915501892B19F0C9
:100150002F5F3F4F02C02150304030935501209314
:10016000540181E090E090935701809356010895E7
:100170000F931F938FE061E00E94D10580E161E061
:100180000E94D10581E161E00E94D10582E161E038
:100190000E94D1058FE061E00E94100680E161E0DD
:1001A0000E94100681E161E00E94100682E161E098
:1001B0000E94100608E511E0C80160E142E020E07D
:1001C0000E94DA028AE061E00E94D1058AE061E0E3
:1001D0000E941006C80160E040E00E94A302C8012E
:1001E00060E071E00E94930483E060E00E94D1052A
:1001F00082E060E00E94D10583E061E00E94100689
:1002000082E061E00E94100681E06FE970E042E068
:1002100050E00E9496041F910F91089580E00E9483
:10022000AF059093700180936F0123E0893E9207A0
:1002300034F5823391051CF423E030E022C0863986
:1002400091051CF421E030E01CC08A3F91051CF4AC
:1002500020E030E016C021E0823C92071CF424E04C
:1002600030E00FC022E08C3B92071CF422E030E02B
:1002700008C0825593401CF426E030E002C025E01F
:1002800030E0C9010895809156019091570101977E
:1002900021F588E591E00E94D20288E591E069E0CD
:1002A00041E00E94A302609154017091550188E5DC
:1002B00091E04AE050E00E94820488E591E060E02D
:1002C00040E00E94A30288E591E060E071E00E94B6
:1002D0009304109257011092560188E591E060E076
:1002E00041E00E94A3020E940E0190936E01809350
:1002F0006D0183309105F9F0843091054CF4813023
:10030000910509F18230910534F5892B61F008954A
:100310008530910509F446C0853091052CF106978A
:1003200009F046C038C088E591E061E171E00E94C3
:1003300093048FE017C088E591E068E171E00E94C6
:10034000930480E10FC088E591E060E271E00E94D3
:10035000930481E107C088E591E067E271E00E94C3
:10036000930482E160E014C088E591E06EE271E000
:100370000E9493048FE061E00E94100680E161E03A
:100380000E94100681E161E00E94100682E161E0B6
:100390000E941006089588E591E065E371E00E94EF
:1003A0009304089588E591E06CE371E00E94930462
:1003B00008950F931F938C01FC01868160E00E94D9
:1003C000100681E090E00E946A05F801868161E0F4
:1003D0000E94100681E090E00E946A05F801868183
:1003E00060E00E94100684E690E00E946A051F917A
:1003F0000F910895CF92DF92EF92FF920F931F9388
:10040000CF93DF93D82EC92E282F392FC9018C0105
:10041000C0E0D0E0E62EFF24F801878161E00E9471
:10042000D105B7010C2E02C0759567950A94E2F7C5
:100430006170F80187810E94100621960F5F1F4F9F
:10044000C830D10549F78D2D9C2D0E94D901DF912F
:10045000CF911F910F91FF90EF90DF90CF90089573
:10046000CF92DF92EF92FF920F931F93CF93DF9380
:10047000D82EC92E282F392FC9018C01C0E0D0E019
:10048000E62EFF24F801878161E00E94D105B701C3
:100490000C2E02C0759567950A94E2F76170F80119
:1004A00087810E94100621960F5F1F4FC430D1052F
:1004B00049F78D2D9C2D0E94D901DF91CF911F917D
:1004C0000F91FF90EF90DF90CF9008951F93CF93FF
:1004D000DF93EC01162F8C81642F0E9410068D8112
:1004E0008F3F19F060E00E9410068F8584FF05C0E1
:1004F000CE01612F0E94FA010EC0612F70E084E0EE
:10050000759567958A95E1F7CE010E943002CE017C
:10051000612F0E943002DF91CF911F91089541E039
:100520000E94660281E090E0089540E00E94660229
:100530000895FC016089862F8460808B6C60CF01F8
:100540000E9495020895DF93CF93CDB7DEB7289729
:100550000FB6F894DEBF0FBECDBF9C01FE013196F1
:10056000ACE4B1E088E00D9001928150E1F7F9012F
:100570008389481710F0482F4150E42FF0E0EE0F28
:10058000FF1FEC0FFD1F8181680F6068C9010E9489
:10059000950228960FB6F894DEBF0FBECDBFCF915F
:1005A000DF91089561E00E94950280ED97E00E943E
:1005B0006A050895CF93DF93EC01423018F08F85E0
:1005C00088608F874B8B1C8A222329F0413019F4D5
:1005D0008F8584608F8780E593EC0E946A058C810B
:1005E00060E00E9410068E8160E00E9410068D81FE
:1005F0008F3F19F060E00E9410066F8564FD1DC0FA
:10060000CE0163E00E94300284E991E10E946A0514
:10061000CE0163E00E94300284E991E10E946A0504
:10062000CE0163E00E94300286E990E00E946A05F4
:10063000CE0162E00E94300216C06062CE010E94CC
:10064000950284E991E10E946A056F856062CE019E
:100650000E94950286E990E00E946A056F856062BB
:10066000CE010E9495026F856062CE010E949502C4
:1006700084E0888BCE010E949902CE010E94D202B2
:1006800082E0898BCE0166E00E949502DF91CF91D6
:1006900008956F927F928F92AF92CF92EF920F93C5
:1006A0001F93DF93CF93CDB7DEB73C01162F842F76
:1006B000F301448325830683E782C086A186828670
:1006C0009D8593879E8594879F8595879889968732
:1006D00061E00E94D105F30185818F3F19F061E04F
:1006E0000E94D105F301868161E00E94D1051123AA
:1006F00019F0F301178603C080E1F3018787C30176
:1007000060E141E020E00E94DA02CF91DF911F9189
:100710000F91EF90CF90AF908F907F906F90089552
:100720008F92AF92CF92EF920F931F93CF93DF935D
:10073000DC01362F542F722F102FAE2C8C2C1396D9
:100740001C921E92129788E491E011969C938E93CE
:1007500000D000D0EDB7FEB73196CDB7DEB7198225
:10076000118212821382CD0161E0432F2FEF052FFA
:10077000E72EC12E0E9449030F900F900F900F900B
:10078000DF91CF911F910F91EF90CF90AF908F900D
:100790000895CF92DF92EF92FF920F931F93CF9322
:1007A000DF937C016B018A01C0E0D0E00FC0D6016D
:1007B0006D916D01D701ED91FC910190F081E02DDB
:1007C000C7010995C80FD91F015010400115110527
:1007D00071F7CE01DF91CF911F910F91FF90EF90B4
:1007E000DF90CF900895CF93DF93EC0161157105F1
:1007F00019F420E030E00FC0DB010D900020E9F794
:100800001197A61BB70BE881F9810280F381E02DD7
:10081000AD0109959C01C901DF91CF9108954F92D7
:100820005F927F928F929F92AF92BF92CF92DF9210
:10083000EF92FF920F931F93DF93CF93CDB7DEB765
:10084000A1970FB6F894DEBF0FBECDBF2C01742E5A
:10085000CB01223008F42AE019A231E2C32ED12CB8
:10086000CC0EDD1E822E9924AA24BB24672D752F61
:10087000A50194010E94D60679018A01C801B70139
:10088000A50194010E94B706472D461B0894C10894
:10089000D1084A3014F4405D01C0495CF601408340
:1008A000E114F1040105110521F07E2C5F2DC80132
:1008B000DDCFC201B6010E94F303A1960FB6F894F2
:1008C000DEBF0FBECDBFCF91DF911F910F91FF9083
:1008D000EF90DF90CF90BF90AF909F908F907F90E0
:1008E0005F904F900895DC012115310541F4ED91A1
:1008F000FC910190F081E02D642F099508950E94EC
:100900000F040895EF92FF920F931F939A017B01BA
:1009100000E010E0B801A7010E9473041F910F913D
:10092000FF90EF9008950E94F3030895823000F540
:10093000E82FF0E0EE0FFF1FEF58FE4F718360834A
:10094000882319F08130A1F408C0809169008C7F60
:10095000842B80936900E89A089580916900440F80
:10096000551F440F551F837F842B80936900E99A9C
:1009700008951F920F920FB60F9211242F933F9359
:100980004F935F936F937F938F939F93AF93BF9397
:10099000EF93FF938091710190917201892B29F05F
:1009A000E0917101F09172010995FF91EF91BF9172
:1009B000AF919F918F917F916F915F914F913F91F7
:1009C0002F910F900FBE0F901F9018951F920F92AE
:1009D0000FB60F9211242F933F934F935F936F9312
:1009E0007F938F939F93AF93BF93EF93FF938091E8
:1009F000730190917401892B29F0E0917301F091BA
:100A000074010995FF91EF91BF91AF919F918F91E3
:100A10007F916F915F914F913F912F910F900FBEFA
:100A20000F901F901895CF93DF930E9474050E943A
:100A3000B800C0E0D0E00E9443012097E1F30E949B
:100A40000000F9CF1F920F920FB60F9211242F932F
:100A50003F938F939F93AF93BF9380917901909130
:100A60007A01A0917B01B0917C0130917D010196CA
:100A7000A11DB11D232F2D5F2D3720F02D5701967D
:100A8000A11DB11D20937D018093790190937A017E
:100A9000A0937B01B0937C018091750190917601C8
:100AA000A0917701B09178010196A11DB11D8093AD
:100AB000750190937601A0937701B0937801BF916F
:100AC000AF919F918F913F912F910F900FBE0F90FB
:100AD0001F901895019739F0880F991F880F991F5B
:100AE00002970197F1F70895789484B5826084BDE8
:100AF00084B5816084BD85B5826085BD85B5816022
:100B000085BDEEE6F0E0808181608083E1E8F0E081
:100B10001082808182608083808181608083E0E8B0
:100B2000F0E0808181608083E1EBF0E0808184608F
:100B30008083E0EBF0E0808181608083EAE7F0E091
:100B400080818460808380818260808380818160F5
:100B500080838081806880831092C1000895982FDF
:100B60008E3008F09E509770809143018295880FD7
:100B7000880F807C892B80937C0080917A00806430
:100B800080937A0080917A0086FDFCCF20917800D6
:100B900040917900942F80E030E0282B392BC90157
:100BA0000895CF93DF93482F50E0CA0186569F4F98
:100BB000FC0134914A575F4FFA018491882369F10F
:100BC00090E0880F991FFC01E859FF4FA591B4915F
:100BD000FC01EE58FF4FC591D491662351F42FB715
:100BE000F8948C91932F909589238C9388818923F5
:100BF0000BC0623061F42FB7F8948C91932F9095CD
:100C000089238C938881832B88832FBF06C09FB74D
:100C1000F8948C91832B8C939FBFDF91CF91089593
:100C2000482F50E0CA0182559F4FFC012491CA0110
:100C300086569F4FFC0194914A575F4FFA013491B9
:100C4000332309F440C0222351F1233071F02430C2
:100C500028F42130A1F0223011F514C02630B1F073
:100C60002730C1F02430D9F404C0809180008F7700
:100C700003C0809180008F7D8093800010C084B578
:100C80008F7702C084B58F7D84BD09C08091B0008C
:100C90008F7703C08091B0008F7D8093B000E32FE9
:100CA000F0E0EE0FFF1FEE58FF4FA591B4912FB764
:100CB000F894662321F48C919095892302C08C913D
:100CC000892B8C932FBF0895682F70E0CB0182553C
:100CD0009F4FFC012491CB0186569F4FFC0144910C
:100CE0006A577F4FFB019491992319F420E030E07B
:100CF0003CC0222351F1233071F0243028F42130FC
:100D0000A1F0223011F514C02630B1F02730C1F027
:100D10002430D9F404C0809180008F7703C0809183
:100D200080008F7D8093800010C084B58F7702C0D3
:100D300084B58F7D84BD09C08091B0008F7703C0DA
:100D40008091B0008F7D8093B000892F90E0880F54
:100D5000991F84589F4FFC01A591B4918C9120E07C
:100D600030E0842311F021E030E0C9010895629F52
:100D7000D001739FF001829FE00DF11D649FE00D93
:100D8000F11D929FF00D839FF00D749FF00D659FF4
:100D9000F00D9927729FB00DE11DF91F639FB00DF3
:100DA000E11DF91FBD01CF0111240895A1E21A2E02
:100DB000AA1BBB1BFD010DC0AA1FBB1FEE1FFF1FFF
:100DC000A217B307E407F50720F0A21BB30BE40B4F
:100DD000F50B661F771F881F991F1A9469F7609596
:100DE0007095809590959B01AC01BD01CF01089550
:100DF000EE0FFF1F0590F491E02D0994F894FFCFBA
:100E0000507573682074686520627574746F6E73B2
:100E100000524947485420004C45465420202000A9
:100E200055502020202000444F574E20200053458D
:100E30004C45435400456E63644F4B004E4F4E4546
:100E400020200001000000008F02C90300004000C4
:040E50001400540036
:00000001FF
